:020000040800F2
:100000000050002085140008A9130008AF13000851
:10001000B5130008BB130008C1130008000000005E
:10002000000000000000000000000000C7130008EE
:10003000D313000800000000DF130008EB130008D2
:10004000CD140008CD140008CD140008CD1400080C
:10005000CD140008CD140008CD140008CD140008FC
:10006000CD140008CD140008CD140008CD140008EC
:10007000CD140008CD140008CD140008F9130008B1
:10008000CD140008CD140008CD140008CD140008CC
:10009000CD140008CD140008CD140008CD140008BC
:1000A000CD140008CD140008CD140008CD140008AC
:1000B000CD140008CD140008CD140008CD1400089C
:1000C000CD140008CD140008CD140008CD1400088C
:1000D000CD140008CD140008CD140008CD1400087C
:1000E000CD140008CD140008CD1400080000000055
:1000F0000000000000000000000000000000000000
:0C01000000000000000000005FF808F1A3
:10010C0010B5054C237833B9044B13B10448AFF345
:10011C0000800123237010BD5C0000200000000053
:10012C00F03D000808B5034B1BB103490348AFF37E
:10013C00008008BD0000000060000020F03D0008B9
:10014C00034613F8012B002AFBD1181A013870470B
:10015C0080B584B000AF78600B46FB70182003F0BC
:10016C0087F90346FB60FB687A681A60FB68FA78CB
:10017C001A71FB681B790233DBB29B00DAB2FB68A5
:10018C001A73FB681B7B184603F072F903461A4678
:10019C00FB689A60FB689868FB681B7B1A46002119
:1001AC0003F03AFAFB681B795B00184603F060F920
:1001BC0003461A46FB681A61FB681869FB681B79D1
:1001CC005B001A46002103F027FAFB681B795B00E1
:1001DC00184603F04DF903461A46FB685A61FB6852
:1001EC005869FB681B795B001A46002103F014FA6E
:1001FC00FB6818461037BD4680BD80B487B000AF91
:10020C0078604FF6FF73BB820023FB810023FB74E5
:10021C000CE07B689A68FB7C13441B78202B02D182
:10022C00FB7CFB7505E0FB7C0133FB74FB7C1F2B1B
:10023C00EFD97B689A68FB7D013313441B789BB222
:10024C00BA8AD31ABB82BB8A203BBB820023BB7405
:10025C0034E0BB7C0133DBB25B00DAB2FB7D1344D0
:10026C007B737B689A687B7B013313441B781B027E
:10027C001AB27B6899687B7B0B441B781BB21343C7
:10028C0019B27B685A69BB7C5B0013448AB21A8032
:10029C007B689A687B7B13441B789BB2BA8AD31A0F
:1002AC00BB827B689A687B7B013313441B789BB2BF
:1002BC00BA8AD31ABB82BB7C0133BB747B681B79B3
:1002CC00BA7C9A42C5D37B681B790133DBB25B00E5
:1002DC00DAB2FB7D13447B737B689A687B7B0133BA
:1002EC0013441B781B021AB27B6899687B7B0B4406
:1002FC001B781BB213431BB2FB81FA89BB8A9A424F
:10030C0016D100237B740EE07B685A697B7C5B0002
:10031C001A447B6819697B7C5B000B4412881A8039
:10032C007B7C01337B747B681B797A7C9A42EBD3A0
:10033C0000BF1C37BD4680BC704780B483B000AF93
:10034C0078600B46FB70FB78002B01D100230FE08B
:10035C007B681B79FA789A4201D9002308E07B6804
:10036C001A69FB7803F10043013B5B0013441B88C3
:10037C0018460C37BD4680BC7047000080B500AFF6
:10038C0000224FF40051024801F0A2FD00BF80BDD5
:10039C000010014080B500AF01224FF4005102481B
:1003AC0001F096FD00BF80BD0010014080B500AF8C
:1003BC0000224FF48041074801F08AFD052001F02E
:1003CC00E3F801224FF48041024801F081FD00BFA7
:1003DC0080BD00BF0010014080B582B000AF034665
:1003EC00FB7100224FF40041064801F071FDF91D2C
:1003FC004FF0FF330122044802F016FA00BF083711
:10040C00BD4680BD00100140F400002080B483B0D4
:10041C0000AF78600A4B1B680A4AA2FB03239B0CB3
:10042C007A6802FB03F37B6000BF7B685A1E7A601C
:10043C00002BFAD100BF00BF0C37BD4680BC704703
:10044C000000002083DE1B4380B584B000AF7860D1
:10045C00396001224FF40041124801F039FD18E0D7
:10046C003B68B3F5004F28BF4FF40043FB81FA897A
:10047C004FF0FF3379680C4802F0D6F90120FFF7F2
:10048C00C5FFFB897A6813447B60FB893A68D31AF1
:10049C003B603B68002BE3D100BF00BF1037BD466B
:1004AC0080BD00BF00100140F400002090B585B065
:1004BC0000AF0446084611461A462346FB80034605
:1004CC00BB800B467B8013463B802A20FFF784FFC2
:1004DC00FB881B0A9BB2DBB23B73FB88DBB27B73E2
:1004EC007B881B0A9BB2DBB2BB737B88DBB2FB73D2
:1004FC0007F10C0304211846FFF7A6FF2B20FFF78A
:10050C006BFFBB881B0A9BB2DBB23B72BB88DBB2B6
:10051C007B723B881B0A9BB2DBB2BB723B88DBB2A3
:10052C00FB7207F1080304211846FFF78DFF2C20FE
:10053C00FFF752FF00BF1437BD4690BD90B59BB07E
:10054C0000AFFFF71BFFFFF731FF0120FFF744FF60
:10055C004FF47A7001F018F8CB20FFF73DFF874A73
:10056C0007F1600392E8030018600433197007F177
:10057C00600305211846FFF767FFCF20FFF72CFF1C
:10058C007F4A07F15C031268114619800233120C82
:10059C001A7007F15C0303211846FFF755FFE8209A
:1005AC00FFF71AFF774A07F15803126811461980B2
:1005BC000233120C1A7007F1580303211846FFF787
:1005CC0043FFEA20FFF708FF0023A7F8543007F198
:1005DC00540302211846FFF737FFED20FFF7FCFE0E
:1005EC00694B3B6507F1500304211846FFF72CFFBC
:1005FC00F720FFF7F1FE202387F84C3007F14C036E
:10060C0001211846FFF720FFC020FFF7E5FE23234A
:10061C0087F8483007F1480301211846FFF714FF0B
:10062C00C120FFF7D9FE102387F8443007F14403AB
:10063C0001211846FFF708FFC520FFF7CDFE42F653
:10064C003E03A7F8403007F1400302211846FFF79C
:10065C00FBFEC720FFF7C0FE862387F83C3007F16E
:10066C003C0301211846FFF7EFFE3620FFF7B4FEDE
:10067C00482387F8383007F1380301211846FFF773
:10068C00E3FE3A20FFF7A8FE552387F8343007F134
:10069C00340301211846FFF7D7FEB120FFF79CFE6B
:1006AC004FF4C0533B8607F1300302211846FFF785
:1006BC00CBFEB620FFF790FE344A07F12C031268EC
:1006CC00114619800233120C1A7007F12C03032106
:1006DC001846FFF7B9FEF220FFF77EFE002387F8DD
:1006EC00283007F1280301211846FFF7ADFE26201C
:1006FC00FFF772FE012387F8243007F12403012150
:10070C001846FFF7A1FEE020FFF766FE204B07F12D
:10071C0014040FCB07C4238002341B0C237007F185
:10072C0014030F211846FFF78FFEE120FFF754FE4C
:10073C00184B3C1D0FCB07C4238002341B0C2370B9
:10074C003B1D0F211846FFF77FFE1120FFF744FEDB
:10075C00782000F019FF2920FFF73EFE3620FFF726
:10076C003BFEE8233B703B4601211846FFF76CFE2D
:10077C00FFF710FE00BF6C37BD4690BD083E000869
:10078C00103E0008143E000864031281183E000855
:10079C001C3E00082C3E000890B585B000AF044606
:1007AC00084611461A462346FB800346BB800B467F
:1007BC007B8013463B80FB88B3F5A07F53D2BB886C
:1007CC00EF2B50D8FA887B881344B3F5A07F03DD58
:1007DC00FB88C3F5A0737B80BA883B881344F02B4D
:1007EC0003DDBB88C3F1F0033B80FFF7C7FDFA883C
:1007FC007B8813449BB2013B9CB2BA883B88134460
:10080C009BB2013B9BB2B988F8882246FFF74EFE9B
:10081C003B8C1B0A9BB2DBB23B733B8CDBB27B7316
:10082C0001224FF40041124801F052FB3B88BB807F
:10083C0013E07B88FB800AE007F10C014FF0FF33DB
:10084C0002220C4801F0F0FFFB88013BFB80FB8887
:10085C00002BF1D1BB88013BBB80BB88002BE8D1BE
:10086C00FFF798FD00E000BF1437BD4690BD00BFF8
:10087C0000100140F400002080B584B002AF0346A4
:10088C00FB80FB880093F0234FF4A0720021002022
:10089C00FFF782FF00BF0837BD4680BD90B58BB017
:1008AC0002AFBA607B600346FB810B46BB817B6861
:1008BC001B687B61BB681B88FB8300237B77002351
:1008CC003B7700237B8300233B7695E000237B76EC
:1008DC0053E03B7F002B09D1FB8B5A1CFA831A4641
:1008EC007B6913441B787B7780233B777A7F3B7F34
:1008FC001340DBB2002B03D07B8B01337B8336E0C0
:10090C007B8B002B33D0BB6893F905301A467B7E6A
:10091C001A447B8BD31A9BB297F8302092B202FB0D
:10092C0003F39AB2FB89134498B2BB6893F906306F
:10093C001A463B7E13449BB297F8302092B202FBCE
:10094C0003F39AB2BB89134499B297F830309BB237
:10095C007A8B02FB03F39AB297F830309CB27B6B24
:10096C009BB200932346FFF717FF00237B833B7F4B
:10097C005B083B777B7E01337B76BB689B787A7E0A
:10098C009A42A6D37B8B002B33D0BB6893F90530EE
:10099C001A467B7E1A447B8BD31A9BB297F8302075
:1009AC0092B202FB03F39AB2FB89134498B2BB6870
:1009BC0093F906301A463B7E13449BB297F83020CD
:1009CC0092B202FB03F39AB2BB89134499B297F823
:1009DC0030309BB27A8B02FB03F39AB297F830302B
:1009EC009CB27B6B9BB200932346FFF7D5FE002392
:1009FC007B833B7E01333B76BB68DB783A7E9A4245
:100A0C00FFF464AF00BF00BF2437BD4690BD90B566
:100A1C008FB002AFBA607B600346FB810B46BB8193
:100A2C00FB89FB85BB89BB8507F11C030C2279680C
:100A3C00184602F035FE00237B8556E07B8DBA68A4
:100A4C0013441B7887F8293097F829300A2B0FD1DB
:100A5C00FB89FB8597F826309BB297F8402092B221
:100A6C0002FB03F39AB2BB8D13449BB2BB8539E0F6
:100A7C0097F8243097F829209A4233D397F82530E9
:100A8C0097F829209A422DD897F829300D2B29D088
:100A9C003A6A97F8293097F824105B1ADB00D118C2
:100AAC0007F114030822184602F0FAFD07F11C04A2
:100ABC0007F11402B7F92C10B7F92E007B6C0193D7
:100ACC0097F8403000932346FFF7E8FE3B7E9BB23D
:100ADC0097F8402092B202FB03F39AB2FB8D1344B9
:100AEC009BB2FB857B8D01337B857C8DB868FFF7D2
:100AFC0027FB03469C42A1D300BF00BF3437BD4641
:100B0C0090BD000080B582B002AF00F0DBFC00F0BD
:100B1C002FFA00F0F1FA00F0D1FA00F06FFA00F0C1
:100B2C00A3FAFFF70BFD4FF6FF70FFF7A5FE47F694
:100B3C000F03019301230093BA4BBB4A1E210A20D9
:100B4C00FFF765FF1F23019301230093B54BB74AB1
:100B5C0046210A20FFF75BFF4FF4FC63019301234E
:100B6C000093B04BB24A6E210A20FFF750FF4FF4AE
:100B7C007843019301230093AA4BAE4A96210A2095
:100B8C00FFF745FF4FF61F03019301230093A54B7D
:100B9C00A94ABE210A20FFF73AFF4FF620530193D2
:100BAC00012300939F4BA54AE6210A20FFF72FFF54
:100BBC000E21A348FFF7CCFA0346A24A1360A14BBF
:100BCC001B689B68402219469D4802F005F9642376
:100BDC0004229D499A4802F074F84FF6FF73019372
:100BEC00012300938F4B994A1E21E620FFF70FFF3C
:100BFC00944B1B6801211846FFF79FFB03461A46CE
:100C0C009349924802F0E8FC8E4B1B680121184670
:100C1C00FFF793FB03461A468D498C4802F0DCFC27
:100C2C0003469AB264238949854802F04AF8642342
:100C3C0002228849824802F044F847F60F030193D8
:100C4C0001230093774B814A1E21E620FFF7DFFE3C
:100C5C006423042280497A4802F033F84FF6FF737C
:100C6C000193012300936F4B7C4A4621E620FFF74A
:100C7C00CEFE744B1B6802211846FFF75EFB034641
:100C8C001A467349754802F0A7FC6E4B1B6802218B
:100C9C001846FFF752FB03461A466D496F4802F09F
:100CAC009BFC03469AB264236C49654802F009F830
:100CBC00642302226749624802F003F81F23019360
:100CCC0001230093574B654A4621E620FFF79FFE10
:100CDC006423042262495A4801F0F3FF4FF6FF7374
:100CEC000193012300934F4B5E4A6E21E620FFF7E0
:100CFC008EFE544B1B6803211846FFF71EFB034660
:100D0C001A465349574802F067FC4E4B1B680321A7
:100D1C001846FFF712FB03461A464D49514802F09C
:100D2C005BFC03469AB264234E49454801F0C9FF67
:100D3C00642302224749424801F0C3FF4FF4FC638D
:100D4C00019301230093374B464A6E21E620FFF7AF
:100D5C005EFE642304224449394801F0B2FF4FF689
:100D6C00FF730193012300932E4B404A9621E620FA
:100D7C00FFF74DFE334B1B6804211846FFF7DDFAD5
:100D8C0003461A463249394802F026FC2D4B1B68A3
:100D9C0004211846FFF7D1FA03461A462C4933486A
:100DAC0002F01AFC03469AB264233049244801F03D
:100DBC0088FF642302222749214801F082FF4FF467
:100DCC007843019301230093164B284A9621E62081
:100DDC00FFF71DFE642304222349194801F071FF1B
:100DEC004FF6FF730193012300930E4B204ABE2153
:100DFC00E620FFF70CFE134B1B6805211846FFF786
:100E0C009CFA03461A461249194802F0E5FB0D4BB1
:100E1C001B6805211846FFF790FA03461A460C4941
:100E2C0028E000BFA85500083C3E0008483E0008DA
:100E3C00543E0008603E00086C3E0008783E0008F6
:100E4C004C010020F0000020843E000878000020B7
:100E5C008C3E0008903E0008943E00088C00002058
:100E6C009C3E0008A0000020A43E0008B400002016
:100E7C00C8000020364802F0AFFB03469AB2642348
:100E8C003349344801F01DFF6423022232493148B2
:100E9C0001F017FF4FF61F030193012300932F4B13
:100EAC002B4ABE21E620FFF7B2FD642304222C4915
:100EBC00284801F006FF4FF6FF73019301230093BE
:100ECC00264B284AE621E620FFF7A1FD264B1B689E
:100EDC0006211846FFF731FA03461A4623492148E2
:100EEC0002F07AFB204B1B6806211846FFF725FA07
:100EFC0003461A461D491B4802F06EFB03469AB284
:100F0C0064231849134801F0DCFE642302221249C1
:100F1C00104801F0D6FE4FF62053019301230093A5
:100F2C000E4B104AE621E620FFF771FD0E4B1B68B5
:100F3C00996864234022074801F0C3FE642302220F
:100F4C000549044801F0BDFE642000F01DFB3EE69F
:100F5C00C80000204C010020903E0008A855000855
:100F6C00A43E0008DC000020F00000208C3E0008AD
:100F7C0080B590B000AF07F1180328220021184665
:100F8C0002F04AFB3B1D00221A605A609A60DA603C
:100F9C001A610123BB614FF48033FB6100233B6278
:100FAC000123BB6202237B634FF48033BB634FF49A
:100FBC00E013FB6307F11803184600F0A1FF03468A
:100FCC00002B01D000F0FEF80F237B600223BB60E6
:100FDC000023FB604FF480633B6100237B613B1D6E
:100FEC000221184601F00EFA0346002B01D000F046
:100FFC00E9F800BF4037BD4680BD000080B500AFAA
:10100C00174B184A1A60164B4FF482725A60144BE5
:10101C0000229A60124B0022DA60114B00221A61F6
:10102C000F4B00225A610E4B4FF400729A610C4B1D
:10103C000022DA610A4B00221A62094B00225A6222
:10104C00074B00229A62064B0A22DA62044801F02E
:10105C0067FB0346002B01D000F0B4F800BF80BD45
:10106C00F40000200038004080B500AF114B124A4C
:10107C001A60104B4FF4E1325A600E4B00229A600A
:10108C000C4B0022DA600B4B00221A61094B0C222C
:10109C005A61084B00229A61064B0022DA6105481E
:1010AC0001F0BFFD0346002B01D000F08BF800BF10
:1010BC0080BD00BF4C0100200038014080B582B0DB
:1010CC0000AF0C4B5B690B4A43F001035361094BB6
:1010DC005B6903F001037B607B68002200210F2019
:1010EC0000F04DFB0F2000F066FB00BF0837BD463B
:1010FC0080BD00BF0010024080B588B000AF07F182
:10110C00100300221A605A609A60DA601E4B9B69C9
:10111C001D4A43F0100393611B4B9B6903F01003B2
:10112C00FB60FB68184B9B69174A43F020039361E3
:10113C00154B9B6903F02003BB60BB68124B9B698A
:10114C00114A43F0080393610F4B9B6903F00803AA
:10115C007B607B6800224FF460410C4800F0B8FEC5
:10116C004FF460433B6101237B610023BB6102238D
:10117C00FB6107F110031946044800F025FD00BF80
:10118C002037BD4680BD00BF00100240001001405A
:10119C0080B582B000AF7860084B1B681846FFF72B
:1011AC002CF8064B1B689B6840221946044801F03A
:1011BC0013FE00BF0837BD4680BD00BFF000002005
:1011CC004C01002080B400AF72B600BFFEE70000F7
:1011DC0080B483B000AF0E4B9B690D4A43F0010302
:1011EC0093610B4B9B6903F001037B607B68084B9D
:1011FC00DB69074A43F08053D361054BDB6903F08D
:10120C0080533B603B6800BF0C37BD4680BC7047C9
:10121C000010024080B588B000AF786007F1100371
:10122C0000221A605A609A60DA607B681B68164A62
:10123C00934224D1154BDB69144A43F48043D361A8
:10124C00124BDB6903F48043FB60FB680F4B9B691B
:10125C000E4A43F0080393610C4B9B6903F008039F
:10126C00BB60BB684FF420433B6102237B610323CB
:10127C00FB6107F110031946054800F0A5FC00BFFF
:10128C002037BD4680BD00BF003800400010024032
:10129C00000C014080B58AB000AF786007F11403F0
:1012AC0000221A605A609A60DA607B681B68354AC3
:1012BC00934263D1344B9B69334A43F4804393612B
:1012CC00314B9B6903F480433B613B692E4B9B691B
:1012DC002D4A43F0080393612B4B9B6903F00803E1
:1012EC00FB60FB6840237B610223BB6103233B62F1
:1012FC0007F114031946254800F066FC80237B6136
:10130C000023BB610023FB6107F1140319461F483E
:10131C0000F05AFC1E4B5B687B627B6A43F0E06317
:10132C007B627B6A43F004037B62194A7B6A5360DD
:10133C00184B194A1A60174B00225A60154B0022A1
:10134C009A60144B8022DA60124B00221A61114B06
:10135C0000225A610F4B00229A610E4B0022DA6177
:10136C000C4800F043FA0346002B01D0FFF72AFF8C
:10137C007B68084ADA63074A7B68536200BF2837E8
:10138C00BD4680BD0038014000100240000C0140F9
:10139C0000000140940100205800024080B400AFCE
:1013AC00FEE780B400AFFEE780B400AFFEE780B488
:1013BC0000AFFEE780B400AFFEE780B400AF00BF23
:1013CC00BD4680BC704780B400AF00BFBD4680BC3A
:1013DC00704780B400AF00BFBD4680BC704780B57D
:1013EC0000AF00F0B5F800BF80BD000080B500AFC5
:1013FC00024800F0B5FA00BF80BD00BF9401002088
:10140C0080B586B000AF7860144A154BD31A7B6157
:10141C007B693B61134B1B68002B02D1114B124AA9
:10142C001A60104B1A687B6813443A699A4207D2C7
:10143C0002F00AF903460C221A604FF0FF3309E060
:10144C00084B1B68FB60074B1A687B681344054A02
:10145C001360FB6818461837BD4680BD005000204D
:10146C0000040000D80100202803002080B400AF45
:10147C0000BFBD4680BC7047FFF7F8FF0B480C4916
:10148C000C4A002302E0D458C4500433C4188C42D4
:10149C00F9D3094A094C002301E013600432A2423B
:1014AC00FBD302F0D7F8FFF72DFB704700000020AC
:1014BC005C0000201C5600085C0000202803002063
:1014CC00FEE7000080B500AF084B1B68074A43F0ED
:1014DC0010031360032000F047F90F2000F008F808
:1014EC00FFF776FE0023184680BD00BF00200240A7
:1014FC0080B582B000AF7860124B1A68124B1B7823
:10150C0019464FF47A73B3FBF1F3B2FBF3F31846BD
:10151C0000F05FF90346002B01D001230EE07B683D
:10152C000F2B0AD8002279684FF0FF3000F027F912
:10153C00064A7B681360002300E001231846083735
:10154C00BD4680BD000000200800002004000020E3
:10155C0080B400AF054B1B781A46054B1B6813442F
:10156C00034A136000BFBD4680BC704708000020D2
:10157C00DC01002080B400AF024B1B681846BD464E
:10158C0080BC7047DC01002080B584B000AF78606F
:10159C00FFF7F0FFB8607B68FB60FB68B3F1FF3FBF
:1015AC0005D00A4B1B781A46FB681344FB6000BF3E
:1015BC00FFF7E0FF0246BB68D31AFA689A42F7D8E5
:1015CC0000BF00BF1037BD4680BD00BF0800002023
:1015DC0080B485B000AF78607B6803F00703FB60D4
:1015EC000C4BDB68BB60BA684FF6FF031340BB6063
:1015FC00FB681A02BB68134343F0BF6343F4003328
:10160C00BB60044ABB68D36000BF1437BD4680BCC6
:10161C00704700BF00ED00E080B400AF044BDB6806
:10162C001B0A03F007031846BD4680BC704700BF79
:10163C0000ED00E080B483B000AF0346FB7197F976
:10164C000730002B0BDBFB7903F01F02064997F9DF
:10165C0007305B09012000FA02F241F8232000BF99
:10166C000C37BD4680BC704700E100E080B483B00D
:10167C0000AF03463960FB7197F90730002B0ADB8A
:10168C003B68DAB20C4997F907301201D2B20B441D
:10169C0083F800230AE03B68DAB20849FB7903F0CF
:1016AC000F03043B1201D2B20B441A7600BF0C3765
:1016BC00BD4680BC704700BF00E100E000ED00E0DB
:1016CC0080B489B000AFF860B9607A60FB6803F051
:1016DC000703FB61FB69C3F10703042B28BF042339
:1016EC00BB61FB690433062B02D9FB69033B00E0A9
:1016FC0000237B614FF0FF32BB6902FA03F3DA433C
:10170C00BB681A407B699A404FF0FF317B6901FA44
:10171C0003F3D9437B680B40134318462437BD466B
:10172C0080BC704780B582B000AF78607B68013BAD
:10173C00B3F1807F01D301230FE00A4A7B68013BA0
:10174C0053600F214FF0FF30FFF790FF054B002245
:10175C009A60044B07221A60002318460837BD46CE
:10176C0080BD00BF10E000E080B582B000AF7860B3
:10177C007868FFF72DFF00BF0837BD4680BD80B5E8
:10178C0086B000AF0346B9607A60FB7300237B61BF
:10179C00FFF742FF78617A68B9687869FFF790FFC4
:1017AC00024697F90F3011461846FFF75FFF00BF4E
:1017BC001837BD4680BD80B582B000AF0346FB71C3
:1017CC0097F907301846FFF735FF00BF0837BD46BD
:1017DC0080BD80B582B000AF78607868FFF7A2FF5B
:1017EC00034618460837BD4680BD000080B485B05E
:1017FC0000AF78600023FB607B68002B01D10123D4
:10180C0043E07B681B681A46224B1344224AA2FB16
:10181C0003231B099A007B681A647B681F4ADA63EE
:10182C007B68022283F821207B681B681B68FB60A5
:10183C00FB6823F47F5323F03003FB607B685A680A
:10184C007B689B681A437B68DB681A437B681B695F
:10185C001A437B685B691A437B689B691A437B68F4
:10186C00DB691343FA681343FB607B681B68FA68F7
:10187C001A607B6800229A637B68012283F821201E
:10188C007B68002283F82020002318461437BD46BD
:10189C0080BC7047F8FFFDBFCDCCCCCC0000024023
:1018AC0080B586B000AFF860B9607A603B60002309
:1018BC00FB75FB6893F82030012B01D102234BE020
:1018CC00FB68012283F82020FB6893F82130DBB2FF
:1018DC00012B3AD1FB68022283F82120FB680022FD
:1018EC009A63FB681B681A68FB681B6822F001028C
:1018FC001A603B687A68B968F86800F037F9FB68D9
:10190C00DB6A002B08D0FB681B681A68FB681B6835
:10191C0042F00E021A600FE0FB681B681A68FB6845
:10192C001B6822F004021A60FB681B681A68FB68CB
:10193C001B6842F00A021A60FB681B681A68FB6895
:10194C001B6842F001021A6005E0FB68002283F874
:10195C0020200223FB75FB7D18461837BD4680BD41
:10196C0080B584B000AF78607B68DB6B1B68FB6074
:10197C007B681B681B68BB607B681B6C04229A40ED
:10198C00FB681340002B4FD0BB6803F00403002B03
:10199C004AD07B681B681B6803F02003002B07D11F
:1019AC007B681B681A687B681B6822F004021A604B
:1019BC007B681B68664A934229D07B681B68654A22
:1019CC00934222D07B681B68634A93421AD07B688F
:1019DC001B68624A934212D07B681B68604A934230
:1019EC000AD07B681B685F4A934202D14FF4800394
:1019FC000EE04FF080630BE04FF4802308E04FF4CF
:101A0C00804305E04FF4806302E0402300E00423B0
:101A1C00554A53607B68DB6A002B00F094807B682E
:101A2C00DB6A786898478EE07B681B6C02229A40D0
:101A3C00FB681340002B56D0BB6803F00203002B4D
:101A4C0051D07B681B681B6803F02003002B0BD163
:101A5C007B681B681A687B681B6822F00A021A6094
:101A6C007B68012283F821207B681B68384A9342EB
:101A7C0029D07B681B68374A934222D07B681B684D
:101A8C00354A93421AD07B681B68344A934212D071
:101A9C007B681B68324A93420AD07B681B68314AC8
:101AAC00934202D14FF400130EE04FF000730BE0A1
:101ABC004FF4003308E04FF4005305E04FF400738B
:101ACC0002E0202300E00223274A53607B680022B7
:101ADC0083F820207B689B6A002B34D07B689B6A40
:101AEC00786898472FE07B681B6C08229A40FB684B
:101AFC001340002B28D0BB6803F00803002B23D025
:101B0C007B681B681A687B681B6822F00E021A60DF
:101B1C007B681A6C7B68DB6B012101FA02F25A605C
:101B2C007B6801229A637B68012283F821207B6801
:101B3C00002283F820207B681B6B002B04D07B6871
:101B4C001B6B7868984700BF00BF1037BD4680BD3F
:101B5C00080002401C0002403000024044000240D9
:101B6C00580002406C0002400000024080B485B076
:101B7C0000AFF860B9607A603B60FB681A6CFB6878
:101B8C00DB6B012101FA02F25A60FB681B683A68B0
:101B9C005A60FB685B68102B08D1FB681B687A687D
:101BAC009A60FB681B68BA68DA6007E0FB681B6820
:101BBC00BA689A60FB681B687A68DA6000BF1437F1
:101BCC00BD4680BC7047000080B48BB000AF78601D
:101BDC00396000237B6200233B6269E101227B6A4E
:101BEC0002FA03F3FB613B681B68FA691340BB61A3
:101BFC00BA69FB699A4240F058813B685B689A4A23
:101C0C0093425ED0984A934275D8984A934258D0E2
:101C1C00964A93426FD8964A934252D0944A934232
:101C2C0069D8944A93424CD0924A934263D8924AD0
:101C3C00934246D0904A93425DD8122B2AD8122B4D
:101C4C0059D801A252F823F0CF1C0008A91C000897
:101C5C00BB1C0008FD1C0008031D0008031D000828
:101C6C00031D0008031D0008031D0008031D0008C8
:101C7C00031D0008031D0008031D0008031D0008B8
:101C8C00031D0008031D0008031D0008B11C0008FB
:101C9C00C51C0008794A934213D02CE03B68DB68E2
:101CAC003B6229E03B68DB6804333B6224E03B6821
:101CBC00DB6808333B621FE03B68DB680C333B623C
:101CCC001AE03B689B68002B02D104233B6213E0B3
:101CDC003B689B68012B05D108233B627B68FA6942
:101CEC001A6109E008233B627B68FA695A6103E0D8
:101CFC0000233B6200E000BFBB69FF2B01D87B686F
:101D0C0001E07B6804337B61BB69FF2B02D87B6AE3
:101D1C009B0002E07B6A083B9B003B617B691A6875
:101D2C000F213B6901FA03F3DB431A40396A3B6923
:101D3C0001FA03F31A437B691A603B685B6803F092
:101D4C008053002B00F0B1804D4B9B694C4A43F003
:101D5C00010393614A4B9B6903F00103BB60BB68B1
:101D6C00484A7B6A9B08023352F82330FB607B6A3B
:101D7C0003F003039B000F2202FA03F3DB43FA6820
:101D8C001340FB607B68404A934213D07B683F4A08
:101D9C0093420DD07B683E4A934207D07B683D4A04
:101DAC00934201D1032306E0042304E0022302E062
:101DBC00012300E000237A6A02F0030292009340B0
:101DCC00FA681343FB602F497B6A9B080233FA685D
:101DDC0041F823203B685B6803F48013002B06D08A
:101DEC002D4B9A682C49BB6913438B6006E02A4B38
:101DFC009A68BB69DB43284913408B603B685B687E
:101E0C0003F40013002B06D0234BDA682249BB697C
:101E1C001343CB6006E0204BDA68BB69DB431E49F9
:101E2C001340CB603B685B6803F40033002B06D097
:101E3C00194B5A681849BB6913434B6006E0164BA3
:101E4C005A68BB69DB43144913404B603B685B68C1
:101E5C0003F48033002B21D00F4B1A680E49BB6959
:101E6C0013430B6021E000BF000032100000311062
:101E7C0000002210000021100000121000001110B0
:101E8C00001002400000014000080140000C01401D
:101E9C000010014000140140000401400B4B1A6873
:101EAC00BB69DB43094913400B607B6A01337B62DE
:101EBC003B681A687B6A22FA03F3002B7FF48EAE20
:101ECC0000BF00BF2C37BD4680BC704700040140EA
:101EDC0080B483B000AF78600B467B8013467B7078
:101EEC007B78002B03D07A887B681A6103E07B88AF
:101EFC001A047B681A6100BF0C37BD4680BC704762
:101F0C0080B586B000AF78607B68002B01D10123CF
:101F1C0072E27B681B6803F00103002B00F08780E2
:101F2C00924B5B6803F00C03042B0CD08F4B5B685B
:101F3C0003F00C03082B12D18C4B5B6803F4803339
:101F4C00B3F5803F0BD1894B1B6803F40033002B96
:101F5C006CD07B685B68002B68D101234CE27B68FA
:101F6C005B68B3F5803F06D1804B1B687F4A43F416
:101F7C00803313602EE07B685B68002B0CD17B4BAD
:101F8C001B687A4A23F480331360784B1B68774ABA
:101F9C0023F4802313601DE07B685B68B3F5A02FEE
:101FAC000CD1724B1B68714A43F4802313606F4B46
:101FBC001B686E4A43F4803313600BE06B4B1B6859
:101FCC006A4A23F480331360684B1B68674A23F416
:101FDC00802313607B685B68002B13D0FFF7CAFA71
:101FEC00386108E0FFF7C6FA02463B69D31A642B46
:101FFC0001D9032300E25D4B1B6803F40033002B73
:10200C00F0D014E0FFF7B6FA386108E0FFF7B2FA47
:10201C0002463B69D31A642B01D90323ECE1534BE1
:10202C001B6803F40033002BF0D100E000BF7B6889
:10203C001B6803F00203002B63D04C4B5B6803F06E
:10204C000C03002B0BD0494B5B6803F00C03082BE3
:10205C001CD1464B5B6803F48033002B16D1434BE9
:10206C001B6803F00203002B05D07B681B69012B56
:10207C0001D00123C0E13D4B1B6823F0F8027B68C3
:10208C005B69DB00394913430B603AE07B681B69E1
:10209C00002B20D0364B01221A60FFF76BFA386107
:1020AC0008E0FFF767FA02463B69D31A022B01D905
:1020BC000323A1E12D4B1B6803F00203002BF0D08E
:1020CC002A4B1B6823F0F8027B685B69DB0027490D
:1020DC0013430B6015E0264B00221A60FFF74AFAF7
:1020EC00386108E0FFF746FA02463B69D31A022B27
:1020FC0001D9032380E11D4B1B6803F00203002B65
:10210C00F0D17B681B6803F00803002B3AD07B6886
:10211C009B69002B19D0174B01221A60FFF72AFA82
:10212C00386108E0FFF726FA02463B69D31A022B06
:10213C0001D9032360E10D4B5B6A03F00203002B12
:10214C00F0D0012000F0CEFA1CE00A4B00221A60FD
:10215C00FFF710FA38610FE0FFF70CFA02463B6903
:10216C00D31A022B08D9032346E100BF001002400A
:10217C000000424280044242924B5B6A03F002032D
:10218C00002BE9D17B681B6803F00403002B00F0E3
:10219C00A6800023FB758B4BDB6903F08053002B6F
:1021AC000DD1884BDB69874A43F08053D361854B53
:1021BC00DB6903F08053BB60BB680123FB75824B6A
:1021CC001B6803F48073002B18D17F4B1B687E4A6D
:1021DC0043F480731360FFF7CDF9386108E0FFF723
:1021EC00C9F902463B69D31A642B01D9032303E1D5
:1021FC00754B1B6803F48073002BF0D07B68DB6895
:10220C00012B06D16F4B1B6A6E4A43F0010313621C
:10221C002DE07B68DB68002B0CD16A4B1B6A694A8A
:10222C0023F001031362674B1B6A664A23F0040315
:10223C0013621CE07B68DB68052B0CD1614B1B6ABD
:10224C00604A43F0040313625E4B1B6A5D4A43F021
:10225C00010313620BE05B4B1B6A5A4A23F0010328
:10226C001362584B1B6A574A23F0040313627B68B2
:10227C00DB68002B15D0FFF77DF938610AE0FFF71A
:10228C0079F902463B69D31A41F28832934201D95B
:10229C000323B1E04B4B1B6A03F00203002BEED07F
:1022AC0014E0FFF767F938610AE0FFF763F90246BB
:1022BC003B69D31A41F28832934201D903239BE044
:1022CC00404B1B6A03F00203002BEED1FB7D012B6C
:1022DC0005D13C4BDB693B4A23F08053D3617B68CF
:1022EC00DB69002B00F08780364B5B6803F00C0336
:1022FC00082B61D07B68DB69022B46D1334B002263
:10230C001A60FFF737F9386108E0FFF733F9024636
:10231C003B69D31A022B01D903236DE0294B1B68AF
:10232C0003F00073002BF0D17B681B6AB3F5803F80
:10233C0008D1244B5B6823F400327B689B682149ED
:10234C0013434B601F4B5B6823F474127B68196A50
:10235C007B685B6A0B431B4913434B601B4B01228D
:10236C001A60FFF707F9386108E0FFF703F9024636
:10237C003B69D31A022B01D903233DE0114B1B6897
:10238C0003F00073002BF0D035E0104B00221A60E4
:10239C00FFF7F0F8386108E0FFF7ECF802463B690C
:1023AC00D31A022B01D9032326E0064B1B6803F03A
:1023BC000073002BF0D11EE07B68DB69012B07D189
:1023CC00012319E0001002400070004060004242FE
:1023DC000B4B5B68FB60FB6803F480327B681B6A09
:1023EC009A4206D1FB6803F470127B685B6A9A42CE
:1023FC0001D0012300E0002318461837BD4680BDEC
:10240C000010024080B584B000AF786039607B6802
:10241C00002B01D10123D0E06A4B1B6803F00703AA
:10242C003A689A4210D9674B1B6823F0070265493A
:10243C003B6813430B60634B1B6803F007033A685C
:10244C009A4201D00123B8E07B681B6803F00203B9
:10245C00002B20D07B681B6803F00403002B05D0F5
:10246C00594B5B68584A43F4E06353607B681B68C4
:10247C0003F00803002B05D0534B5B68524A43F41E
:10248C0060535360504B5B6823F0F0027B689B6891
:10249C004D4913434B607B681B6803F00103002B11
:1024AC0040D07B685B68012B07D1474B1B6803F45A
:1024BC000033002B15D101237FE07B685B68022B76
:1024CC0007D1414B1B6803F00073002B09D101238A
:1024DC0073E03D4B1B6803F00203002B01D1012379
:1024EC006BE0394B5B6823F003027B685B68364911
:1024FC0013434B60FFF73EF8F8600AE0FFF73AF839
:10250C000246FB68D31A41F28832934201D9032365
:10251C0053E02D4B5B6803F00C027B685B689B00FF
:10252C009A42EBD1274B1B6803F007033A689A4297
:10253C0010D2244B1B6823F0070222493B6813433B
:10254C000B60204B1B6803F007033A689A4201D0DA
:10255C00012332E07B681B6803F00403002B08D0D6
:10256C00194B5B6823F4E0627B68DB681649134304
:10257C004B607B681B6803F00803002B09D0124BDF
:10258C005B6823F460527B681B69DB000E491343C4
:10259C004B6000F021F802460B4B5B681B0903F003
:1025AC000F030A49CB5C22FA03F3094A1360094B67
:1025BC001B681846FEF79CFF002318461037BD46D3
:1025CC0080BD00BF0020024000100240B45500083E
:1025DC00000000200400002080B487B000AF00236E
:1025EC00FB600023BB6000237B6100237B60002326
:1025FC003B611E4B5B68FB60FB6803F00C03042B18
:10260C0002D0082B03D027E0194B3B6127E0FB6875
:10261C009B0C03F00F03174AD35C7B60FB6803F43D
:10262C008033002B10D0114B5B685B0C03F0010363
:10263C00114AD35CBB607B680D4A03FB02F2BB689A
:10264C00B2FBF3F37B6104E07B680C4A02FB03F3FF
:10265C007B617B693B6102E0054B3B6100BF3B69E1
:10266C0018461C37BD4680BC704700BF00100240A6
:10267C0000127A00CC550008DC55000800093D001A
:10268C0080B400AF024B1B681846BD4680BC704737
:10269C000000002080B500AFFFF7F2FF0246054BAB
:1026AC005B681B0A03F007030349CB5C22FA03F3B4
:1026BC00184680BD00100240C455000880B500AF1C
:1026CC00FFF7DEFF0246054B5B68DB0A03F00703EE
:1026DC000349CB5C22FA03F3184680BD001002407C
:1026EC00C455000880B485B000AF78600A4B1B68F5
:1026FC000A4AA2FB03235B0A7A6802FB03F3FB6022
:10270C0000BFFB685A1EFA60002BF9D100BF00BF56
:10271C001437BD4680BC704700000020D34D6210BA
:10272C0080B582B000AF78607B68002B01D10123AB
:10273C0076E07B685B6A002B08D17B685B68B3F53D
:10274C00827F09D07B680022DA6105E07B68002279
:10275C001A617B6800225A617B6800229A627B684E
:10276C0093F85130DBB2002B06D17B68002283F842
:10277C0050207868FEF74EFD7B68022283F85120CA
:10278C007B681B681A687B681B6822F040021A6021
:10279C007B685B6803F482727B689B6803F4044378
:1027AC001A437B68DB6803F400631A437B681B697C
:1027BC0003F002031A437B685B6903F001031A43BD
:1027CC007B689B6903F400731A437B68DB6903F035
:1027DC0038031A437B681B6A03F0800342EA030147
:1027EC007B689B6A03F400527B681B680A431A607F
:1027FC007B689B691A0C7B681B6802F004025A60A8
:10280C007B681B68DA697B681B6822F40062DA61FA
:10281C007B6800225A657B68012283F851200023D3
:10282C0018460837BD4680BD80B588B000AFF8604B
:10283C00B9603B601346FB80FEF79CFEF861FB8899
:10284C007B83FB6893F85130DBB2012B01D0022360
:10285C002AE1BB68002B02D0FB88002B01D101239D
:10286C0022E1FB6893F85030012B01D102231BE1CC
:10287C00FB68012283F85020FB68032283F8512067
:10288C00FB6800225A65FB68BA681A63FB68FA8811
:10289C009A86FB68FA88DA86FB6800229A63FB68E2
:1028AC0000229A87FB680022DA87FB6800225A64B0
:1028BC00FB6800221A64FB689B68B3F5004F0FD1CC
:1028CC00FB681B681A68FB681B6822F040021A60E0
:1028DC00FB681B681A68FB681B6842F480421A602C
:1028EC00FB681B681B6803F04003402B07D0FB6898
:1028FC001B681A68FB681B6842F040021A60FB6890
:10290C00DB68B3F5006F52D1FB685B68002B02D01B
:10291C007B8B012B45D1FB681B6B1A88FB681B68F2
:10292C00DA60FB681B6B9A1CFB681A63FB68DB8E16
:10293C009BB2013B9AB2FB68DA8632E0FB681B68FB
:10294C009B6803F00203022B12D1FB681B6B1A88E5
:10295C00FB681B68DA60FB681B6B9A1CFB681A63CC
:10296C00FB68DB8E9BB2013B9AB2FB68DA8618E0FF
:10297C00FEF700FE0246FB69D31A3A689A4203D866
:10298C003B68B3F1FF3F02D13B68002B09D1FB68D8
:10299C00012283F85120FB68002283F85020032386
:1029AC0082E0FB68DB8E9BB2002BC7D153E0FB6847
:1029BC005B68002B02D07B8B012B47D1FB681A6B19
:1029CC00FB681B680C3312781A70FB681B6B5A1C63
:1029DC00FB681A63FB68DB8E9BB2013B9AB2FB6807
:1029EC00DA8633E0FB681B689B6803F00203022B5A
:1029FC0013D1FB681A6BFB681B680C3312781A70C6
:102A0C00FB681B6B5A1CFB681A63FB68DB8E9BB262
:102A1C00013B9AB2FB68DA8618E0FEF7ABFD024682
:102A2C00FB69D31A3A689A4203D83B68B3F1FF3F6B
:102A3C0002D13B68002B09D1FB68012283F851209D
:102A4C00FB68002283F8502003232DE0FB68DB8E0B
:102A5C009BB2002BC6D1FA693968F86800F0B0F85F
:102A6C000346002B02D0FB6820225A65FB689B684A
:102A7C00002B0AD100237B61FB681B68DB687B6140
:102A8C00FB681B689B687B617B69FB68012283F890
:102A9C005120FB68002283F85020FB685B6D002BF3
:102AAC0001D0012300E0002318462037BD4680BD2D
:102ABC0080B588B000AFF860B9603B601346FB711D
:102ACC00FEF758FD0246BB6A9B1A3A681344FB6139
:102ADC00FEF750FDB861394B1B685B011B0DFA69A1
:102AEC0002FB03F37B6154E03B68B3F1FF3F50D032
:102AFC00FEF740FD0246BB69D31AFA699A4202D925
:102B0C00FB69002B3DD1FB681B685A68FB681B688E
:102B1C0022F0E0025A60FB685B68B3F5827F11D14A
:102B2C00FB689B68B3F5004F04D0FB689B68B3F55A
:102B3C00806F07D1FB681B681A68FB681B6822F062
:102B4C0040021A60FB689B6AB3F5005F0FD1FB680B
:102B5C001B681A68FB681B6822F400521A60FB6839
:102B6C001B681A68FB681B6842F400521A60FB6809
:102B7C00012283F85120FB68002283F850200323A4
:102B8C0017E07B69002B01D10023FB617B69013BC2
:102B9C007B61FB681B689A68BB681340BA689A42F1
:102BAC000CBF01230023DBB21A46FB799A429BD15E
:102BBC00002318462037BD4680BD00BF0000002012
:102BCC0080B586B002AFF860B9607A607B6800931C
:102BDC00BB6801220221F868FFF76AFF0346002B4D
:102BEC0007D0FB685B6D43F02002FB685A6503233A
:102BFC0013E07B680093BB6800228021F868FFF724
:102C0C0057FF0346002B07D0FB685B6D43F0200297
:102C1C00FB685A65032300E0002318461037BD46B5
:102C2C0080BD80B582B000AF78607B68002B01D18D
:102C3C00012342E07B6893F84130DBB2002B06D1D4
:102C4C007B68002283F840207868FEF723FB7B68C2
:102C5C00242283F841207B681B68DA687B681B6838
:102C6C0022F40052DA60786800F074FB7B681B6811
:102C7C001A697B681B6822F490421A617B681B6896
:102C8C005A697B681B6822F02A025A617B681B68B0
:102C9C00DA687B681B6842F40052DA607B680022B9
:102CAC005A647B68202283F841207B68202283F8B9
:102CBC0042207B6800225A63002318460837BD4621
:102CCC0080BD80B58AB002AFF860B9603B60134636
:102CDC00FB8000237B61FB6893F84130DBB2202B37
:102CEC0075D1BB68002B02D0FB88002B01D10123CE
:102CFC006EE0FB6800225A64FB68212283F84120B5
:102D0C00FEF738FC7861FB68FA889A84FB68FA88CD
:102D1C00DA84FB689B68B3F5805F08D1FB681B699C
:102D2C00002B04D10023FB61BB68BB6103E0BB68D3
:102D3C00FB610023BB612EE03B6800937B690022A2
:102D4C008021F86800F088F90346002B05D0FB6859
:102D5C00202283F8412003233AE0FB69002B0BD19E
:102D6C00BB691B881A46FB681B68C2F308025A60D1
:102D7C00BB690233BB6107E0FB691A78FB681B680F
:102D8C005A60FB690133FB61FB68DB8C9BB2013B36
:102D9C009AB2FB68DA84FB68DB8C9BB2002BCBD13C
:102DAC003B6800937B6900224021F86800F054F9DD
:102DBC000346002B05D0FB68202283F84120032317
:102DCC0006E0FB68202283F84120002300E0022368
:102DDC0018462037BD4680BD80B584B000AFF86082
:102DEC00B9601346FB80FB6893F84230DBB2202BB2
:102DFC0012D1BB68002B02D0FB88002B01D1012320
:102E0C000BE0FB6800221A63FB881A46B968F86865
:102E1C0000F07CF9034600E0022318461037BD464B
:102E2C0080BD80B483B000AF786000BF0C37BD4666
:102E3C0080BC704780B483B000AF786000BF0C37A3
:102E4C00BD4680BC704780B483B000AF78600B4641
:102E5C007B8000BF0C37BD4680BC704780B59CB0F2
:102E6C0000AF78607B685B6AFB667B681B681B68DD
:102E7C0003F02003002B72D1FB6E0022DA85FB6E6F
:102E8C001B680C33FB64FB6C53E8003FBB64BB6CEE
:102E9C0023F48073BB66FB6E1B680C33BA6EBA6589
:102EAC007B65796DBA6D41E800233B653B6D002B6A
:102EBC00E5D1FB6E1B681433BB63BB6B53E8003F5F
:102ECC007B637B6B23F001037B66FB6E1B68143307
:102EDC007A6E7A643B64396C7A6C41E80023FB634C
:102EEC00FB6B002BE5D1FB6E1B6814337B627B6A9A
:102EFC0053E8003F3B623B6A23F040033B66FB6EAA
:102F0C001B6814333A6E3A63FB62F96A3A6B41E818
:102F1C000023BB62BB6A002BE5D1FB6E202283F839
:102F2C004220FB6E1B6B012B19D1FB6E1B680C3303
:102F3C003B613B6953E8003FFB60FB6823F01003E7
:102F4C00FB65FB6E1B680C33FA6DFA61BB61B969EA
:102F5C00FA6941E800237B617B69002BE5D1FB6EAC
:102F6C0000225A63FB6E1B6B012B06D1FB6E9B8DF3
:102F7C001946F86EFFF767FF02E0F86EFEF708F9E6
:102F8C0000BF7037BD4680BD80B584B000AF78609F
:102F9C007B685B6AFB60FB6801225A63FB681B6BF6
:102FAC00012B08D1FB689B8D5B089BB21946F86816
:102FBC00FFF749FF02E0F868FFF733FF00BF103757
:102FCC00BD4680BD80B584B000AF78600023FB6047
:102FDC007B685B6ABB60BB681B685B6903F0800342
:102FEC00002B14BF01230023DBB2FB60BB6893F8FA
:102FFC004130DBB2212B08D1FB68002B05D0BB681C
:10300C000022DA84B86800F01BF9BB681B685B69A6
:10301C0003F04003002B14BF01230023DBB2FB6041
:10302C00BB6893F84230DBB2222B08D1FB68002B33
:10303C0005D0BB680022DA85B86800F028F9BB68B7
:10304C005B6C43F01002BB685A64B868FFF7F2FE81
:10305C0000BF1037BD4680BD80B586B000AFF860AC
:10306C00B9603B601346FB713BE03B6AB3F1FF3F39
:10307C0037D0FEF77FFA02463B68D31A3A6A9A4277
:10308C0002D33B6A002B01D103233AE0FB681B6897
:10309C00DB6803F00403002B23D0BB68802B20D00B
:1030AC00BB68402B1DD0FB681B681B6803F0080332
:1030BC00082B16D100237B61FB681B681B687B61A6
:1030CC00FB681B685B687B617B69F86800F0DFF864
:1030DC00FB6808225A64FB68002283F84020012315
:1030EC000FE0FB681B681A68BB681340BA689A4209
:1030FC000CBF01230023DBB21A46FB799A42B4D0F1
:10310C00002318461837BD4680BD000080B598B026
:10311C0000AFF860B9601346FB80BA68FB689A622E
:10312C00FB68FA889A85FB6800225A64FB682222A5
:10313C0083F84220FB68DB6B3E4A9A62FB68DB6BD0
:10314C003D4ADA62FB68DB6B3C4A1A63FB68DB6B5B
:10315C0000225A6307F10803FB65FB68D86BFB6818
:10316C001B6804331946FB6D1A68FB88FEF798FB45
:10317C0000233B61FB681B681B683B61FB681B6899
:10318C005B683B613B69FB681B69002B19D0FB68D2
:10319C001B680C333B643B6C53E8003FFB63FB6BDD
:1031AC0043F48073BB65FB681B680C33BA6DFA641F
:1031BC00BB64B96CFA6C41E800237B647B6C002B1C
:1031CC00E5D1FB681B681433FB62FB6A53E8003FD4
:1031DC00BB62BB6A43F001037B65FB681B6814335D
:1031EC007A6DBA637B63796BBA6B41E800233B63FE
:1031FC003B6B002BE5D1FB681B681433BB61BB69CF
:10320C0053E8003F7B617B6943F040033B65FB68FF
:10321C001B6814333A6D7A623B62396A7A6A41E808
:10322C000023FB61FB69002BE5D1002318466037B6
:10323C00BD4680BD692E0008952F0008D12F0008CF
:10324C0080B489B000AF78607B681B680C33FB607E
:10325C00FB6853E8003FBB60BB6823F0C003FB6115
:10326C007B681B680C33FA69BA617B617969BA694E
:10327C0041E800233B613B69002BE5D17B682022B0
:10328C0083F8412000BF2437BD4680BC704780B412
:10329C0095B000AF78607B681B680C337B637B6BED
:1032AC0053E8003F3B633B6B23F49073FB647B68F8
:1032BC001B680C33FA6C3A64FB63F96B3A6C41E8AB
:1032CC000023BB63BB6B002BE5D17B681B681433FD
:1032DC003B623B6A53E8003FFB61FB6923F001034F
:1032EC00BB647B681B681433BA6CFA62BB62B96A44
:1032FC00FA6A41E800237B627B6A002BE5D17B688C
:10330C001B6B012B19D17B681B680C33FB60FB68B2
:10331C0053E8003FBB60BB6823F010037B647B6801
:10332C001B680C337A6CBA617B617969BA6941E8C4
:10333C0000233B613B69002BE5D17B68202283F89D
:10334C0042207B6800221A6300BF5437BD4680BC04
:10335C007047000080B584B000AF78607B681B6854
:10336C001B6923F440517B68DA687B681B680A434D
:10337C001A617B689A687B681B691A437B685B6976
:10338C001343BB607B681B68DB6823F4B05323F0EA
:10339C000C037A681268B9680B43D3607B681B68AE
:1033AC005B6923F440717B689A697B681B680A43EC
:1033BC005A617B681B682C4A934203D1FFF77EF954
:1033CC00F86002E0FFF766F9F860FA6813469B00B4
:1033DC0013449A001A447B685B689B00B2FBF3F3BE
:1033EC00224AA2FB03235B091901FA6813469B00CE
:1033FC0013449A001A447B685B689B00B2FBF3F29F
:10340C001A4BA3FB02035B09642000FB03F3D31AE2
:10341C001B013233154AA2FB03235B0903F0F003B3
:10342C001944FA6813469B0013449A001A447B68AB
:10343C005B689B00B2FBF3F20C4BA3FB02035B0932
:10344C00642000FB03F3D31A1B013233074AA2FB9F
:10345C0003235B0903F00F027B681B680A449A6024
:10346C0000BF1037BD4680BD003801401F85EB51B1
:10347C00024B0146186800F023B800BF580000202A
:10348C0070B50E4E0C463168054611B900F0CCF8FB
:10349C0030602146284600F0C7F8431C0AD0C41CF3
:1034AC0024F00304A04207D0211A284600F0BCF8EF
:1034BC00013001D14FF0FF34204670BDE4010020F3
:1034CC002DE9F843CD1C25F0030508350C2D38BF2C
:1034DC000C25002D074601DBA94205D90C2300263B
:1034EC003B603046BDE8F883DFF8D08000F068F828
:1034FC00D8F800301C465CBB29463846FFF7C0FFA5
:10350C00431C044655D1D8F800402646002E45D120
:10351C00002C48D023683146384604EB030900F0F0
:10352C0083F881453FD1216838466D1A2946FFF74B
:10353C00A7FF013037D023682B442360D8F8003024
:10354C00002B38D05A68A2422BD100225A600FE0CF
:10355C002268521B1FD40B2A17D96119A34225606C
:10356C0018BF5960636808BFC8F8001062514B60FF
:10357C00384604F10B0600F029F826F00706231D47
:10358C00F21AAED09B1BA350ABE7A3426268DDD10D
:10359C00C8F80020ECE723466468ACE7344676684C
:1035AC00B4E71346CCE70C2338463B6000F00EF82A
:1035BC0097E72560DCE75B60FFDE00BFE0010020E1
:1035CC00014800F06BB800BF24030020014800F054
:1035DC0066B800BF240300200EB46FF0004100B5A4
:1035EC009CB01DAB029006900791049108480949C4
:1035FC0053F8042B0591006802A9019300F000F91F
:10360C000022029B1A701CB05DF804EB03B07047EB
:10361C00580000200802FFFF03460244934200D1E9
:10362C00704703F8011BF9E738B50023054D044634
:10363C0008462B60FDF7E4FE431C02D12B6803B156
:10364C00236038BD20030020014B1868704700BF71
:10365C005800002070B500260C4D0D4C641BA410B6
:10366C00A64209D100F0BEFB00260A4D0A4C641B91
:10367C00A410A64205D170BD55F8043B98470136FD
:10368C00EEE755F8043B98470136F2E7145600086C
:10369C001456000814560008185600087047704756
:1036AC000A44914200F1FF3300D1704710B511F874
:1036BC00014B914203F8014FF9D110BD38B50546C5
:1036CC00002940D051F8043C0C1F002BB8BFE41863
:1036DC00FFF776FF1C4A136833B963601460284601
:1036EC00BDE83840FFF772BFA34208D92068211803
:1036FC008B4201BF19685B6809182160EDE71A4617
:10370C005B680BB1A342FAD911685018A0420BD1D7
:10371C0020680144501883421160E0D118685B683E
:10372C00084410605360DAE702D90C232B60D6E70B
:10373C00206821188B4201BF19685B680918216049
:10374C0063605460CBE738BDE00100202DE9F04701
:10375C001F468E688246BE420C4690460B682CD89B
:10376C008A8912F4906F26D06569096905EB4505C5
:10377C00A3EB010905EBD5757B1C4B446D109D42E9
:10378C0038BF1D46530527D52946FFF799FE064637
:10379C0060B34A462169FFF783FFA38923F4906342
:1037AC0043F08003A38126614E4426603E4665614A
:1037BC00A5EB0905A560BE4200D93E4632464146FE
:1037CC00206800F0AFFA0020A3689B1BA36023685D
:1037DC0033442360BDE8F0872A4600F0CBFA064656
:1037EC000028E0D150462169FFF768FF0C23CAF886
:1037FC000030A3894FF0FF3043F04003A381E9E789
:10380C002DE9F04F98468B8907461B060D4614464A
:10381C009DB00ED50B6963B94021FFF751FE2860AE
:10382C00286120B90C233B604FF0FF30D0E04023DF
:10383C006B610023099320238DF8293030234FF03E
:10384C000109CDF80C80DFF8A0818DF82A302346D1
:10385C009A4613F8012B0AB1252AF9D1BAEB040BBD
:10386C000BD05B46224629463846FFF76FFF0130E6
:10387C0000F0A980099A5A4409929AF80030002B5A
:10388C0000F0A18000234FF0FF32CDE905230AF1AF
:10389C00010A049307938DF853301A93544605226A
:1038AC0014F8011B504800F057FA049AD8B9D00606
:1038BC0044BF20238DF85330110744BF2B238DF8C0
:1038CC0053309AF800302A2B15D0544600204FF074
:1038DC000A0C079A214611F8013B303B092B4DD9B4
:1038EC00B0B1079214E0A0EB080309FA03F31343F9
:1038FC00A2460493D2E7039B191D1B680391002B6E
:10390C00BBBF5B4242F0020207930793B8BF04921D
:10391C0023782E2B0CD163782A2B34D1039B0234C1
:10392C001A1D1B680392002BB8BF4FF0FF33059391
:10393C00DFF8B8A003225046217800F00DFA38B118
:10394C004022049BA0EB0A008240134301340493F1
:10395C0014F8011B062226488DF8281000F0FCF9FB
:10396C00002838D0234B1BBB039B073323F00703E2
:10397C0008330393099B3344099368E70C460120F1
:10398C000CFB0232A6E700234FF00A0C1946013457
:10399C000593204610F8012B303A092A03D9002B45
:1039AC00C6D00591C4E7044601230CFB0121F0E7C6
:1039BC0003AB00932A4638460F4B04A9AFF30080A3
:1039CC00421C0646D6D1AB895B063FF52DAF099854
:1039DC001DB0BDE8F08F03AB00932A463846064B6A
:1039EC0004A900F07DF8EBE7DE550008E45500086B
:1039FC00E855000800000000593700082DE9F04791
:103A0C00164699468A680B6907469342B8BF134617
:103A1C00336091F843200C46DDF820800AB1013365
:103A2C0033602368990642BF3368023333602568DC
:103A3C0015F0060506D104F1190AE36832689B1AE1
:103A4C00AB422BDC94F84320131E226818BF0123D1
:103A5C00920630D44946384604F14302C04701303F
:103A6C0023D02368226903F00603042B14BF00251E
:103A7C0033684FF0000608BFE56804F11A0408BF6C
:103A8C00ED1A54F8123C08BF25EAE5759342C4BF01
:103A9C009B1AED18B5421AD1002008E001235246BA
:103AAC0049463846C047013003D14FF0FF30BDE8DE
:103ABC00F0870135C1E73020E11881F843005A1C2A
:103ACC0094F845102244023382F84310C2E70123D4
:103ADC00224649463846C0470130E6D00136D9E780
:103AEC002DE9FF470F7E9146782F80460C469A466B
:103AFC000C9D01F1430207D8622F0AD8002F00F069
:103B0C00D580582F00F0C18004F1420584F8427032
:103B1C003AE0A7F16303152BF6D801A151F823F075
:103B2C00853B0008993B0008153B0008153B000835
:103B3C00153B0008153B0008993B0008153B000895
:103B4C00153B0008153B0008153B00089F3C00087E
:103B5C00C53B0008593C0008153B0008153B000804
:103B6C00C13C0008153B0008C53B0008153B00088C
:103B7C00153B0008613C00082B681A1D1B682A6065
:103B8C0004F1420584F842300123A0E020682B6840
:103B9C00070603F10401296001D51E6803E04606FF
:103BAC00FBD5B3F90060002E03DA2D23764284F89E
:103BBC0043300A23594812E02B682068191D2960EC
:103BCC00050601D51E6802E04106FBD51E886F2F45
:103BDC000CBF08230A235148002184F84310656860
:103BEC00002DA8BF2168A560A4BF21F004012160AD
:103BFC000EB9002D4BD01546B6FBF3F103FB116744
:103C0C00C75D05F8017D3746BB420E46F4D9082B3B
:103C1C000BD12368DE0708D5236961689942DEBFA2
:103C2C00302305F8013C05F1FF35521B22614B4650
:103C3C0021464046CDF800A003AAFFF7DFFE013075
:103C4C004AD14FF0FF3004B0BDE8F087236843F051
:103C5C00200323607827324884F84570236829684C
:103C6C001F0651F8046B02D45F0648BFB6B2DF07DB
:103C7C0048BF43F02003296048BF23601EB9236866
:103C8C0023F0200323601023A6E72448E4E715461D
:103C9C00BDE72B682668181D6169286035061B680E
:103CAC0001D5196002E07006FBD51980002315467A
:103CBC002361BCE72B6800211A1D2A601D6862680D
:103CCC00284600F049F808B1401B60606368236126
:103CDC00002384F84330AAE72A4649464046236924
:103CEC00D0470130ADD023689B0713D4E068039B09
:103CFC009842B8BF1846A6E70123324649464046CB
:103D0C00D04701309DD00135E36803995B1AAB4273
:103D1C00F2DCEBE7002504F11906F5E7EF55000896
:103D2C0000560008884210B501EB020402D9844207
:103D3C00234607D8431EA14208D011F8012B03F8E3
:103D4C00012FF8E7014602448A4200D110BD13F856
:103D5C00014D02F8014DF7E7034610B5C9B2024414
:103D6C009342184601D1002003E0047801338C42C1
:103D7C00F6D110BD2DE9F041804614460E4621B90E
:103D8C001146BDE8F041FFF79BBB2AB9FFF796FC43
:103D9C0025462846BDE8F08100F01BF88442074612
:103DAC0002D8B4EB500F12D821464046FFF788FBDF
:103DBC0005460028EDD0BC422246314628BF3A4683
:103DCC00FFF76EFC31464046FFF778FCE1E73546DD
:103DDC00DFE751F8043C181F002BBCBF0B58C01870
:103DEC0070470000F8B500BFF8BC08BC9E46704791
:0C3DFC00F8B500BFF8BC08BC9E4670473C
:103E0800392C00340200000000C130008500780021
:103E1800088227000F312B0C0E084EF137071003CC
:103E28000E090000000E1403110731C148080F0CD9
:103E380031360F004348414E4E454C3100000000DA
:103E48004348414E4E454C32000000004348414E25
:103E58004E454C33000000004348414E4E454C341B
:103E6800000000004348414E4E454C35000000001C
:103E78004348414E4E454C36000000004348313A15
:103E880000000000256400000D0A00004348323A93
:103E9800000000004348333A000000004348343A29
:103EA8000000000000FDFBF7EFDFBF7E7CF9F3E7C1
:103EB8008F1E3C780000079FBF7EFCF0F9F7CF9E6D
:103EC8003CF1E78F3C79E3CF1E78F001E1C0078F22
:103ED800001E3C0078F003C3C00F0E003C781FFFA3
:103EE800FE7FFFF9FFFFE7FFFF81E3C0078F001E9A
:103EF8003C0078F03FFFFCFFFFF3FFFFCFFFFF031D
:103F0800C7800E1E00787001E3C0078F001E3C00BA
:103F180078F00001C0003800070003FE03FFF8FF37
:103F2800FF3FFFC7EE38F9C01F3803F7007FE007EF
:103F3800FC007FF007FF803FF801FF803FF0073F5C
:103F480000E7E81CFDE3BF3FFFE7FFF8FFFE03FEC5
:103F580000070000E0001C000380001F801F007F96
:103F6800803C01FF80F803FF81E00F9F07C01F1E00
:103F78000F003E3C3E007C787800F8F1E001F1E368
:103F8800C003E3CF1F03CF9E7F87FF79FF8FFCF726
:103F9800FF0FF3CF9E07C79E3E001E3C7C007C7837
:103FA800F800F0F1F003E1E3E00783C7C01F07CF93
:103FB800803C0FFE00F00FFC01E00FF007800F803F
:103FC80001F80000FFC0003FFC000FFFC001F0F83F
:103FD800003E1F0007C3E000F87C001F1F8001FFA0
:103FE800E0003FF80003FE0000FF01F83FF03F0F3C
:103FF800FF0FC3F3F9F87E3FFE0F83FFC3F03FF0D6
:104008007E01FE07F07F80FFFFF01FFFFF01FFFF2B
:10401800F00FFF3F007F83F8FBE79E79E79E780764
:10402800C1F03C0F81E07C0F81E07C0F81E03C0F08
:1040380081F03E07C0F81F03E07C0780F01F03E013
:104048007C0780F80F01F01E03E03EF80F80F01F98
:1040580001E03E07C0780F81F03E03C07C0F81F07D
:104068003E07C0F81F03E0780F03E07C0F83E07C75
:104078000F03E0781F07C001E0003C00078000F054
:10408800001E00E3C71FFFE3FFFCFFFFC0FF000F98
:10409800C003FC00F7C03E7C07CF8070E002180028
:1040A80001C00070001C00070001C00070001C0364
:1040B800FFFEFFFFBFFFEFFFF8070001C000700021
:1040C8001C00070001C00070003E3E7C7C7C7878B4
:1040D800F8F0FFDFFBFF7FE079FBF7EFCF00003E52
:1040E800007C007C007C00F800F800F001F001F092
:1040F80003E003E003E007C007C007800F800F80DC
:104108001F001F001F003E003E003C007C007C009A
:10411800F80003F800FFE01FFF03FFF03F1F87E0F0
:10412800F87C07C7C07C7C07CFC07CFC07EFC07E4B
:10413800FC07EFC07EFC07EFC07E7C07C7C07C7C15
:1041480007C7C07C7E0FC3F1F83FFF81FFF00FFE69
:10415800003F8000F807E07F83FE1FF8FFE7EF9F2E
:104168003E38F803E00F803E00F803E00F803E0081
:10417800F803E00F803E00F803E00F803E00F803EC
:10418800E003F800FFE03FFF07FFF87FFFC3E1FC13
:10419800380FC1007C0007C000FC000F8001F80048
:1041A8003F0007E000FC001F8003F0007E000FC006
:1041B80001F8003F0007FFFEFFFFEFFFFEFFFFEFE4
:1041C800FFFE07F803FFE07FFF07FFF83C1FC10071
:1041D800FC000FC000FC000F8000F8003F00FFE06B
:1041E8000FF800FFE00FFF8001FC000FC0007C000B
:1041F80007E0007E800FCF01FCFFFF8FFFF8FFFE76
:1042080001FF00001F0003F0007F0007F000FF001F
:104218001FF001FF003DF007DF00F9F00F1F01F16B
:10422800F03E1F03C1F0781F0F81F0FFFFEFFFFE84
:10423800FFFFEFFFFE001F0001F0001F0001F0006C
:104248001F0001F07FFF1FFFC7FFF1FFFC7FFF1F6B
:104258000007C001F0007C001FFC0FFFC3FFF8FF40
:10426800FF081FE001F8003E000F8003E000F8009F
:104278007E801FB80FCFFFF3FFF8FFF80FF800009C
:104288007F803FF807FF80FFF81FC003F0003E0063
:1042980007C0007C0007CFC079FF0FBFF8FFFFCF32
:1042A800F0FCFE07EFC07EFC03EFC03E7C07E7C0D2
:1042B8007E7E07C3F0FC3FFF81FFF80FFE001F80E2
:1042C800FFFFEFFFFEFFFFEFFFFEFFFFC0007C00D8
:1042D8000FC000F8001F8001F0003F0003E0007EDF
:1042E8000007C0007C000FC000F8001F8001F0002C
:1042F8003F0003E0007E0007C000FC000FC001F88B
:104308000003F800FFE01FFF83FFF87E0FC7C07CA3
:104318007C07C7C07C3E0F83F1F81FFF00FFE00752
:10432800FC01FFE03FFF07F1F87C0FCFC07CF803EA
:10433800EF803EFC07E7E0FC7FFFC3FFF81FFF00AC
:104348007F8003F000FFC03FFF03FFF87E1F87C098
:10435800FCFC07CFC07CF807EF807EFC07EFC0FEAF
:104368007E1FE7FFFE3FFBE1FF3C07E7C0007C0044
:1043780007C000F8001F8007F03FFE03FFC03FF8AA
:1043880003FC0079FBF7EFCF000000000000001EDF
:104398007EFDFBF3C03C7E7E7E7E3C00000000007C
:1043A80000000000003E3E7C7C7C7878F8F000003D
:1043B8008000E000F800FE00FF00FF01FF01FE00A2
:1043C800FE003E000FF001FF001FF800FF800FF80D
:1043D80000FE000F8000600000FFFFBFFFEFFFFB43
:1043E800FFFE00000000000003FFFEFFFFBFFFEF1D
:1043F800FFF8800038000F8003F8007F8007F8007E
:104408007F8003FC003F8003E007F807FC0FFC0FE8
:10441800FC0FF803F800F80030000000000FF03F30
:10442800FE3FFF8FFFE783F100F8007C003E003F6E
:10443800003F003F003F003F003F001F000F000704
:10444800800000000000000078007E003F001F8010
:104458000FC003C000001FE00007FFE000FFFF805F
:104468000FF0FF00FC00F80F8003E0F8000F8781D1
:10447800FC3C783FF8F3C7FFC7BC3E1E3DE3E0F1C4
:10448800EF1E078F79F03C7BCF01E3DE780F1EF338
:10449800E0F8F78F07C73C7C7E79E1FFFF8F8FFB41
:1044A800FC3C1F0781F0000007C000001F0004004B
:1044B8007F8FE001FFFF0007FFF80007FE00000004
:1044C8007F00001FC0000FF80003FE0000F7800007
:1044D8007DF0001F7C00078F0003E3E000F8F80080
:1044E8007E3F001F07C007C1F003F07E00F80F8071
:1044F8003FFFE01FFFFC07FFFF01FFFFC0FFFFF8C2
:104508003F007E0F800F87E003F1F800FC7C001F5E
:104518003F0007E0FFF80FFFF0FFFF8FFFFCFFFFF2
:10452800CFC0FCFC07CFC07CFC07CFC0FCFFFF8FCF
:10453800FFE0FFFF0FFFFCFC0FCFC07EFC07EFC0C2
:104548007EFC07EFC07EFC0FEFFFFCFFFFCFFFF8FC
:10455800FFFF0FFFC000FF001FFF03FFFC3FFFC16D
:10456800FFFE1FE0E1FC000FC0007E0007E0003FF7
:104578000001F8000FC0007E0003F0001F8000FC5F
:104588000003E0001F8000FE0003F80E1FFFF07F0D
:10459800FF81FFFC07FFE007F800FFF801FFFE03BB
:1045A800FFFE07FFFE0FFFFE1F81FE3F00FE7E009D
:1045B800FCFC01F9F801FBF003F7E007EFC00FDF9F
:1045C800801FBF003F7E007EFC00FDF803F3F0076C
:1045D800E7E01FCFC0FF1FFFFC3FFFF07FFFC0FFDA
:1045E800FE01FFE000FFFEFFFEFFFEFFFEFFFEFCF8
:1045F80000FC00FC00FC00FC00FFFCFFFCFFFCFFD3
:10460800FCFFFCFC00FC00FC00FC00FC00FC00FFC4
:10461800FEFFFEFFFEFFFEFFFEFFFEFFFEFFFEFFAA
:10462800FEFFFEFC00FC00FC00FC00FC00FC00FFA0
:10463800FEFFFEFFFEFFFEFFFEFC00FC00FC00FC90
:1046480000FC00FC00FC00FC00FC00FC00007FC03B
:104658000FFFE07FFF83FFFC1FFFF0FF01C7F8009B
:104668001FC0007E0003F0000FC0003F07FEFC1FC4
:10467800FBF07FEFC1FFBF07FEFC00F9F003E7E0A6
:104688000F9FC03E3F80F8FFFFE1FFFF83FFFE075B
:10469800FFF803FE00FC00FDF801FBF003F7E0075C
:1046A800EFC00FDF801FBF003F7E007EFC00FDF8DB
:1046B80001FBFFFFF7FFFFEFFFFFDFFFFFBFFFFF7C
:1046C8007E007EFC00FDF801FBF003F7E007EFC079
:1046D8000FDF801FBF003F7E007EFC00FDF801F861
:1046E800FDFBF7EFDFBF7EFDFBF7EFDFBF7EFDFBD6
:1046F800F7EFDFBF7EFDF803F01F80FC07E03F0106
:10470800F80FC07E03F01F80FC07E03F01F80FC0E0
:104718007E03F01F80FC07E03F01F80FC07E03F026
:104728001F80F80FCFFE7FE3FF1FF0FE00FC03FBA6
:10473800F00FCFC07E3F03F0FC1F83F0FE0FC3F0E5
:104748003F1F80FCFC03F7E00FDF803FFC00FFF811
:1047580003FFE00FFFC03FBF00FC7E03F0FC0FC368
:10476800F03F07E0FC1FC3F03F0FC07E3F01F8FC9D
:1047780003F3F00FE0FC007E003F001F800FC0072E
:10478800E003F001F800FC007E003F001F800FC02E
:1047980007E003F001F800FC007E003F001F800FD7
:1047A800C007FFFBFFFDFFFEFFFF7FFF80FF000F3D
:1047B800F7F8007FBFC003FDFF003FEFF801FF7F60
:1047C800C00FFBFF00FFDFF807BEFBC03DF7DF03AC
:1047D800EFBEF81E7DF3C0F3EF9F0F9F7CF878FBC8
:1047E800E3C3C7DF1E3E3EF8F9E1F7C3CF0FBE1E95
:1047F800F87DF0FF83EF87FC1F7C1FE0FBE0FE07DE
:10480800DF07F03EF81F81F7C0F80F80FE003EFF7B
:10481800003EFF003EFF803EFFC03EFFC03EFFE07F
:104828003EFBE03EFBF03EF9F03EF9F83EF8FC3E78
:10483800F8FC3EF87E3EF87E3EF83F3EF81F3EF814
:104848001FBEF80FBEF80FFEF807FEF807FEF803C4
:10485800FEF803FEF801FEF800FE00FF8000FFF8F6
:1048680000FFFF807FFFF03FFFFE0FF07F87F0071C
:10487800F1F800FC7E003F3F0007EFC001FBF000AD
:104888007EFC001FBF0007EFC001FBF0007EFC00AC
:104898001F9F800FC7E003F1FC01FC3FC1FE0FFF23
:1048A800FF81FFFFC03FFFE003FFE0003FE000FFA4
:1048B800F81FFFC3FFFC7FFFCFFFFDF83FBF03F7E3
:1048C800E03EFC07DF80FBF03F7E0FEFFFF9FFFFC4
:1048D8003FFFC7FFF0FFF01F8003F0007E000FC00E
:1048E80001F8003F0007E000FC001F800000FF8087
:1048F80000FFF800FFFF807FFFF03FFFFE0FF07F13
:1049080087F007F1F800FC7E003F3F0007EFC00189
:10491800FBF0007EFC001FBF0007EFC001FBF000AA
:104928007EFC001F9F800FC7E003F1FC01FC3FC124
:10493800FE0FFFFF81FFFFC03FFFE003FFE0003FE6
:10494800F800007F00000FE00001FC00003F80003D
:1049580007E00001FCFFF003FFF80FFFF03FFFE066
:10496800FFFFC3F07F0FC0FC3F01F0FC07C3F01F3F
:104978000FC0FC3F07E0FFFF03FFF80FFFC03FFF3A
:1049880000FC7E03F0F80FC3F03F07E0FC1F83F044
:104998003F0FC07E3F01F8FC03F3F007E007F00784
:1049A800FF83FFF1FFFC7FFE3F038F8003E000FCE5
:1049B800003F8007F801FF803FF803FF003FE00356
:1049C800FC003F0007E001FA007CF03F3FFFCFFF0B
:1049D800E3FFF8FFF807F800FFFFEFFFFEFFFFEF28
:1049E800FFFEFFFFE01F0001F0001F0001F0001FA5
:1049F8000001F0001F0001F0001F0001F0001F007F
:104A080001F0001F0001F0001F0001F0001F00016D
:104A1800F0001F0001F0001F00F801FBE007EF8025
:104A28001FBE007EF801FBE007EF801FBE007EF886
:104A380001FBE007EF801FBE007EF801FBE007EFF7
:104A4800801FBE007EFC01FBF007EFC01FBF80FE89
:104A58007F07F1FFFFC3FFFE07FFF00FFF8007F09E
:104A680000FC007EFC007E7C007C7E00FC7E00FC5E
:104A78003E00F83E00F83F01F81F01F01F01F01F4B
:104A880083F00F83E00F83E00FC7E007C7C007C7B5
:104A9800C007C7C003EF8003EF8003EF8001EF007A
:104AA80001FF0001FF0000FE0000FE0000FE00F80C
:104AB80001F007EFC01F007E7C03F807C7C03F80E6
:104AC8007C7C03F807C7E07F80FC3E07FC0F83E08F
:104AD8007BC0F83E07BC0F83F0FBE1F81F0FBE1F39
:104AE80001F0F3E1F01F0F1E1F01F1F1F3F00F9F2A
:104AF8001F3E00F9E0F3E00F9E0F3E00FBE0F3E0FD
:104B080007BE0FFC007FC07FC007FC07FC007FC00A
:104B18007FC003FC07F8003F803F8003F803F800DC
:104B28003F803F807E007E3F003E0FC03F03F03F46
:104B380001F81F807E1F801F0F800FCFC003F7C0B2
:104B480000FFC0007FE0001FE0000FF00007F80042
:104B580007FC0003FF0003FFC003F3E001F1F801C5
:104B6800F87E01F83F00FC0FC0FC03F07C01F87EE2
:104B7800007E7E003F80FC00FCF801F1F807E1F0C0
:104B88000F83F03F03E07C07E1F807C3E00FCFC0D5
:104B98000F9F001FFE001FF8003FF0003FC0003FBE
:104BA80000007E0000FC0001F80003F00007E000B0
:104BB8000FC0001F80003F00007E0000FC0001F8CD
:104BC80000FFFFEFFFFEFFFFEFFFFEFFFFC000FC4F
:104BD800001F8003F0003E0007E000FC000F80018A
:104BE800F8003F0007E0007C000FC001F8003F001C
:104BF80003E0007E000FFFFEFFFFEFFFFEFFFFEF69
:104C0800FFFEFF7FBFDFEF0783C1E0F0783C1E0F98
:104C18000783C1E0F0783C1E0F0783C1E0F0783CC1
:104C28001E0FF7FBFDFEF8007C007C003C003E00F8
:104C38003E001F001F001F000F800F80078007C065
:104C480007C003C003E003E001F001F001F000F841
:104C580000F80078007C007C003EFF7FBFDFE0F0BA
:104C6800783C1E0F0783C1E0F0783C1E0F0783C114
:104C7800E0F0783C1E0F0783C1EFF7FBFDFE00E074
:104C8800001E0001F0003F0003F8007F8007BC0011
:104C9800F3C00F1E01E1E01E0F01E0F03C0783C0E6
:104CA800787803C7803CF803E0FFFEFFFEFC0FC0E6
:104CB800FC0F8078078007F80FFF83FFF0FFFE1CCA
:104CC8001F8003E000F8003E07FF8FFFE7FFFBF8B7
:104CD8003EF80FBE03EF81FBF0FEFFFFBFFDE7FECE
:104CE800787E1EF8001F0003E0007C000F8001F0B2
:104CF800003E0007C7E0FBFE1FFFE3FFFE7F0FCF6C
:104D0800C0FDF81FBE01F7C03EF807DF00FBE01F3B
:104D18007C03EFC0FDF81FBF87E7FFFCFFFF1E7F86
:104D2800C3C3E00003FC07FF8FFF8FFFC7E0E7E086
:104D380003F001F000F8007C003E001F000F800720
:104D4800E003F000FC0C7FFE1FFF07FF80FF000060
:104D580007C000F8001F0003E0007C000F8001F08E
:104D68003E3E1FF7C7FFF9FFFF3F0FEFC0FDF80FEB
:104D7800BE01F7C03EF807DF00FBE01F7C03EFC071
:104D88007DF81F9F87F3FFFE3FFFC3FE783F0F00AC
:104D980007F007FF03FFE1FFFC7E1F3F03EF80FBE7
:104DA800E03EFFFFBFFFEFFFFBFFFEF8003E000FF6
:104DB800C001F80C7FFF0FFFC0FFF00FF003FC0FDE
:104DC800FC1FFC1FFC1F801F001F003FF8FFF8FF9F
:104DD800F8FFF81F001F001F001F001F001F001F03
:104DE800001F001F001F001F001F001F001F001FC3
:104DF800001F0003FFF07FFF87FFFC7E3F83E0F882
:104E08001F07C0F83E07C1F03E0F81F8FC07FFC03E
:104E18001FFC00FF800F0000F80007E0001FFF8064
:104E2800FFFE03FFF87FFFC7C03E7C00F3E0079F4B
:104E3800007CFC0FE3FFFE1FFFE07FFE00FF800009
:104E4800F8001F0003E0007C000F8001F0003E0026
:104E580007C7E0FBFF1FFFF3FFFF7F0FEFC0FDF861
:104E68000FBE01F7C03EF807DF00FBE01F7C03EF31
:104E7800807DF00FBE01F7C03EF807DF00FBE01FA2
:104E88000073EFBE70003EFBEFBEFBEFBEFBEFBE54
:104E9800FBEFBEFBEF800380F81F03E03800000043
:104EA8003E07C0F81F03E07C0F81F03E07C0F81FE3
:104EB80003E07C0F81F03E07C0F81F03E07C0F8100
:104EC800F07EFFDFF3FC7E00F8000F8000F8000F93
:104ED8008000F8000F8000F8000F80FCF81F8F8317
:104EE800F0F87E0F87E0F8FC0F9F80FBF00FFE00C4
:104EF800FFF00FFF00FFF80FEFC0F87C0F87E0F816
:104F08003F0F81F8F81F8F80FCF80FE0FBEFBEFB26
:104F1800EFBEFBEFBEFBEFBEFBEFBEFBEFBEFBEF52
:104F280080F0FC0FC3CFF8FF8FFFF7FF3FFFFFFEB6
:104F3800FE1FE1FBF07F07EFC0FC0FBE03E03EF869
:104F48000F80FBE03E03EF80F80FBE03E03EF80F52
:104F580080FBE03E03EF80F80FBE03E03EF80F80D1
:104F6800FBE03E03EF80F80FBE03E03EF0FC1E7F3F
:104F7800E3FFFE7FFFEFE1FDF81FBF01F7C03EF83A
:104F880007DF00FBE01F7C03EF807DF00FBE01F719
:104F9800C03EF807DF00FBE01F7C03E003F003FFDF
:104FA80080FFFC3FFF87E1F9F81FBF03F7C03EF819
:104FB80007DF00FBE01F7C03EF807DF81FBF03F3D2
:104FC800F0FC7FFF87FFE03FF801F800F0FC1F7F4F
:104FD800C3FFFC7FFFCFE1F9F81FBF03F7C03EF81E
:104FE80007DF00FBE01F7C03EF807DF81FBF03F79E
:104FF800F0FCFFFF9FFFE3EFF87C7C0F8001F000DF
:105008003E0007C000F8001F0003E0007C000F808E
:105018000007C3C3FEF8FFFF3FFFE7E1FDF81FBF2E
:1050280001F7C03EF807DF00FBE01F7C03EF807D3F
:10503800F80FBF03F3F0FE7FFFC7FFF87FDF07E33A
:10504800E0007C000F8001F0003E0007C000F8007F
:105058001F0003E0007CF0F78FBCFDFFEFFF7F83AC
:10506800F01F80F807C03E01F00F807C03E01F00AE
:10507800F807C03E01F0000FE03FFC7FFCFFFCF8A2
:1050880038F800FC00FF00FFC07FF01FFC07FC00A1
:10509800FE007E007EE07CFFFCFFF8FFF03FC00FC3
:1050A800001E007C00F803FFDFFFBFFF7FFE3F000C
:1050B8007E00FC01F803F007E00FC01F803F007E70
:1050C800007C00FC21FFC3FF83FF01FCF807DF0021
:1050D800FBE01F7C03EF807DF00FBE01F7C03EF8B8
:1050E80007DF00FBE01F7C03EF807DF01FBF03F7A5
:1050F800E0FEFFFFCFFFF8FFCF07E1E0FC03F3E09E
:105108001F1F00F8FC0FC3E07C1F03E0FC3F03E116
:10511800F01F0F80FCFC03E7C01F3E0079E003FF8F
:10512800001FF8007F8003FC001FE0007E0003F0F2
:1051380000FC0FE07E7C0FE07C7C0FE07C7E0FE0C3
:10514800FC3E1EF0F83E1EF0F83E1EF0F83F1EF141
:10515800F81F3C79F01F3C79F01F3C79F00FBC7BBD
:10516800E00FB87BE00FF83FE00FF83FE007F83FAB
:10517800C007F83FC007F01FC003F01F8003F01FEF
:10518800807E03F1F81FC3F07E07E3F01F8FC03F56
:105198007E007FF001FFC003FE0007F0003FE00043
:1051A800FF8007FF003F7E00FDF807E3F03F07E0C0
:1051B800FC1F87E03F3F80FEFC03F3E01F1F81F8E0
:1051C800FC0FC3E07C1F83E0FC3F03E1F01F0F806E
:1051D8007CFC03E7C01F3E007FF003FF001FF800C0
:1051E8007FC003FC000FE0007F0003F0001F800079
:1051F800F80007C0007E0007E003FF001FF000FF73
:105208000007E000007FFF3FFF9FFFCFFFE007E0C0
:1052180007E003E003F003F003F001F001F801F800
:1052280001F800F800FC00FFFF7FFFBFFFDFFFE091
:1052380001F03F83FC1FE0F807C03E01F00F807CBF
:1052480003E01F01F01F83FC1F80FC07F80FC03F1D
:1052580000F807C03E01F00F807C03E01F00FF0745
:10526800F81FC03EF7BDEF7BDEF7BDEF7BDEF7BD75
:10527800EF7BDEF7BDEF7BDEF7BCF807F03FC1FE42
:1052880001F00F807C03E01F00F807C03E01F00723
:10529800E03FC07E03F07F83F03F01F00F807C0386
:1052A800E01F00F807C03E0FF07F83F81F000000E2
:1052B800000001010A0000000100071A0B02E600C5
:1052C80018000D091202E6002700161A1801E60058
:1052D8006F00131E1602E500B7001F1A2101E60031
:1052E8001C011B1A1C01E600740106090B02E600EA
:1052F8007B010B200D01E600A7010B200D01E60044
:10530800D30113111501E500FC0112121602EA007F
:10531800250208090B01FC002E020B040D01F40004
:10532800340207060B02FA003A02101A1000E600CF
:105338006E02141A1601E600AF020E1A1602E600F3
:10534800DD02141A1601E6001E03141A1601E600FF
:105358005F03141A1601E600A003121A1602E600EB
:10536800DB03141A1601E6001C04141A1601E600E1
:105378005D04141A1601E6009E04141A1601E600CC
:10538800DF0407140B02EC00F10408190B01EC0010
:105398000A0512131602EA003505120B1602EE0072
:1053A8004E0512131602EA007905111A1200E600DA
:1053B800B1051D1D2102E6001B061A1A1A00E60097
:1053C8007006141A1903E600B106151A1802E60049
:1053D800F606171A1C03E6004107101A1503E60023
:1053E8007507101A1503E600A907161A1B02E6002E
:1053F800F107171A1D03E6003C08071A0D03E6001B
:1054080053080D210DFDE6008908161A1903E60058
:10541800D108111A1503E60009091D1A2303E6002D
:105428006809181A1E03E600B6091A1A1E02E600D1
:105438000B0A131A1803E600490A1A201E02E6008E
:10544800B10A161A1903E600F90A121A1502E6003B
:10545800340B141A1601E600750B161A1C03E60025
:10546800BD0B181A1800E6000B0C241A2400E600DD
:10547800800C191A1900E600D20C171A1700E6005A
:105488001D0D141A1601E6005E0D09200D03E60035
:10549800820D101A1000E600B60D09200D01E60075
:1054A800DA0D14111400E600050E100210000400B5
:1054B800090E0B061706E400120E12141702EC0070
:1054C8003F0E131B1803E500800E11141402EC00A4
:1054D800AB0E131B1802E500EC0E12141602EC00BA
:1054E800190F101B0F01E5004F0F151D1500EC00DB
:1054F8009C0F131B1903E500DD0F061B0C03E500C9
:10550800F20F0B240CFEE5002410141B1703E50012
:105518006810061B0C03E5007D101E142403EC0024
:10552800C81013141903EC00F81013141702EC0038
:105538002811131D1803EC006D11131D1802EC003F
:10554800B2110D141103EC00D31110141302EC0066
:10555800FB110F181101E800281213141903EC00AD
:10556800581215141500EC008D1220142000EC00C0
:10557800DD1216141600EC001413151D1500EC00AE
:10558800611311141301EC008C130D200F01E600B8
:10559800C01305231508E500D6130D200F01E600FA
:1055A800AC3E0008B8520008207E3200000000001F
:1055B80000000000010203040607080900000000BB
:1055C8000102030402030405060708090A0B0C0D6F
:1055D8000E0F10100102232D302B2000686C4C0098
:1055E80065666745464700303132333435363738DB
:1055F8003941424344454600303132333435363739
:0C560800383961626364656600000000D0
:045614003101000858
:045618000D01000878
:10561C0000127A00100000000100000000000000E1
:10562C00E801002050020020B80200200000000019
:10563C00000000000000000000000000000000005E
:10564C00000000000000000000000000000000004E
:10565C00000000000000000000000000000000003E
:0C566C0000000000000000000C00002006
:040000050800148556
:00000001FF
